:1000000000200020CD0A0000F50A0000F50A0000DB
:1000100000000000000000000000000000000000E0
:10002000000000000000000000000000F50A0000D1
:100030000000000000000000F50A0000F50A0000C2
:10004000F50A0000F50A0000F50A0000F50A0000B4
:10005000F50A0000F50A0000F50A0000F50A0000A4
:10006000C1080000F50A0000F50A0000F50A0000CA
:10007000F50A0000F50A0000F50A0000F50A000084
:10008000F50A0000F50A0000F50A0000F50A000074
:10009000F50A0000F50A0000F50A0000F50A000064
:1000A000F50A0000F50A0000F50A0000F50A000054
:1000B000F50A0000F50A0000F50A0000F50A000044
:1000C00010B5064C2378002B07D1054B002B02D02E
:1000D000044800E000BF0123237010BD340000205D
:1000E00000000000E80B0000044B10B5002B03D00B
:1000F0000349044800E000BF10BDC04600000000F6
:1001000038000020E80B000080B588B000AF002365
:10011000BB613B1D204A1A60204B1B6A7B617A69D8
:10012000A023DB02134001D0002331E07A69802351
:100130001B03134002D01A4BFB6101E0194BFB611A
:100140007A6980239B02134001D0FB6920E07B6920
:100150009B0B032213403A1DD35C3B617B69DB059B
:10016000DB0D0233FB607B695B0A1F221340023305
:10017000BB60FB699B08FA685A431000BB683A6988
:100180005343190000F0BCFC03009B00BB61BB693A
:100190001800BD4608B080BD0102020400020050F4
:1001A00000805101001BB70080B584B000AF7860BB
:1001B0002A4BDB6810221340FB607B68284A93427D
:1001C00001D9274B7B607B68264A934201D8264B96
:1001D0007B60224B1A68214B04210A431A601020CD
:1001E00000F024FA1D4B1A691C4B07210A431A61BF
:1001F0001A4B9A69194B0F218A439A61174BDB6896
:100200000122134008D07B685B001900002000F039
:100210001FF903007B600EE07B685A0080231B03FC
:100220001100180000F014F903007B600B4BDB6831
:1002300010221340FB600121022000F017F8FB6838
:10024000002B05D1054B1A68044B04218A431A6020
:100250007B685B081800BD4604B080BD00020050FA
:1002600080F0FA023F787D0140787D0180B584B04E
:1002700000AF786039601C4BDB6810221340FB60D4
:10028000194B1A68184B04210A431A60C046164BD2
:10029000DB6810221340FAD0134B1A69124B072166
:1002A0000A431A61104B9B690F22934319000E4BAE
:1002B0003A680A439A610C4B1B6907229343190061
:1002C000094B7A680A431A6100F0B4FBFB68002B03
:1002D00005D1054B1A68044B04218A431A60C046B5
:1002E000BD4604B080BDC0460002005090B58BB042
:1002F00000AFF860B9607A6000237B6200233B6244
:100300001023FB18264A13CA13C312681A60FB682D
:100310009B0AFF2213401BD0FB689B0C0322134057
:10032000204A944663449B003B623B6A1B68FA6820
:10033000920AFF211140FA6852091F2002409140A1
:100340000A00D2431A4011003B6A7A680A431A60D5
:10035000FB685B0E072213401ED0FB681B0F0322B5
:100360001A401023FB189200D3580F4A9446634456
:100370007B627B6A1B68FA68520E07211140FA689B
:10038000120D1F20024091400A00D2431A40110072
:100390007B6ABA680A431A60C046BD460BB090BD7E
:1003A000A80B0000860000141002005080B582B037
:1003B00000AF7860064B1B69382293431900044B49
:1003C0007A680A431A61C046BD4602B080BDC04685
:1003D0000002005080B582B000AF7860044B19680D
:1003E000034B7A680A431A60C046BD4602B080BD1E
:1003F00000020050B0B586B000AF786008257B19C8
:10040000114A13CA13C312681A607B689A0F2C0032
:100410003B199200D3580D4A944663441A687B688E
:100420001F210B40012199400B0018007B68990F98
:100430003B198900CB5805498C46634402431A6036
:10044000C046BD4606B0B0BDB80B00000402005067
:1004500080B58EB000AF78603960674B8022520261
:100460001A627B68002B0FD1634B1A68624B012123
:100470000A431A60012000F0D9F800237B625F4B29
:100480007B6302233B630FE05B4B1A685A4B0421EA
:100490000A431A60102000F0C9F880231B037B6216
:1004A000574B7B6304233B633B68564A934206D811
:1004B0003B68554A934202D90023BB621CE03B686B
:1004C000514A934209D83B68504A934205D90123C7
:1004D000BB623B685B003B600EE03B684B4A93426B
:1004E00000D974E03B684A4A934200D86FE0032386
:1004F000BB623B689B003B6001235B423B62002385
:10050000BB610023FB6141E0396B786B00F0F8FAC6
:1005100003007B617B693F4A934234D97B693E4A41
:10052000934230D80223FB6227E07B69FA6A534387
:100530003B613B69394A93421CD93B69314A93423A
:1005400018D83A693B689A4203D93A693B68D31A8A
:1005500002E03A683B69D31AFB60FA683B6A9A4248
:1005600008D2FB683B623B6BBB61FB6AFB613B6A89
:10057000002B07D0FB6A0133FB62FB6A284A9342D7
:10058000D3D900E0C0463B6B01333B633B6B212B6F
:10059000BAD9BB6A9A037B6A1A43BB69023B5B0206
:1005A0001A431100FB699A1E134B0A431A62042076
:1005B00000F03CF8BB6A0133BA6953431900786B09
:1005C00000F09EFA03001A00FB69534310E0C04696
:1005D0007B68002B03D1084B124A1A6202E0064BDB
:1005E000114A1A62042000F021F8FFF78DFD030084
:1005F0001800BD460EB080BD00020050001BB700C1
:100600000080510100C2EB0B00E1F50580F0FA0219
:100610003F787D01006A1800BFE1E400FFE0F505C6
:10062000010200002EC200006FD6080080B584B021
:1006300000AF78600A4BFB6006E0FB685A1EFA6068
:10064000002B01DC002307E0064BDB687A681340CF
:100650007A689A42F1D101231800BD4604B080BDEA
:10066000804F12000002005080B586B000AFF860E5
:10067000B9607A6000237B611BE001227B699A40AC
:1006800013001A00BB68134010D0FB681B687A691E
:100690005200032191400A00D2431A407B695B005B
:1006A000796899400B001A43FB681A607B69013333
:1006B0007B617B690F2BE0D9C046C046BD4606B0C2
:1006C00080BD80B588B000AFF860B9607A60FB6823
:1006D000180000F037F803007B610023FB61002362
:1006E000BB617B695B087A689A4202D90223FB618D
:1006F00013E07968786900F003FA0300FB61FB6995
:100700001B0EBB61BB69002B07D0BB69013319000D
:10071000F86900F0F5F90300FB61BA68BB691A4398
:10072000FB681A60FB68FA695A60BB690133FA69B1
:1007300053431900786900F0E3F903001800BD463F
:1007400008B080BD90B58DB000AF78600C23FB1869
:100750001E4A13CA13C313CA13C303CA03C37B6855
:100760001B4A934206D11B4B5B691B0A07221340AD
:10077000FB621BE07B68184A934206D1154B5B690C
:100780001B0B07221340FB6210E07B68134A934265
:1007900006D1104B5B691B0C07221340FB6205E07E
:1007A0000C4B5B691B0D07221340FB62FB6A022B9B
:1007B00002D10B4B1B6804E00C23FB18FA6A920071
:1007C000D3581800BD460DB090BDC046C80B000000
:1007D00000000140000200502000014000001140D4
:1007E0000000002080B582B000AF0200FB1D1A702F
:1007F000FB1D1B781A001F23134001229A40034B54
:100800001A60C046BD4602B080BDC04600E100E0AF
:1008100080B500AF11E0A023DA0580235B005921E9
:10082000D150A023DA0580235B001621D150A023EC
:10083000DA0580235B008821D150A023DA058023CC
:100840005B00D358012BE6D1C046C046BD4680BDF3
:1008500080B582B000AF78607B681B688022D205CB
:100860001A437B681A60C046BD4602B080BD80B5A1
:1008700082B000AF78607B681B68802292051A43C3
:100880007B681A60C046BD4602B080BD80B582B0AC
:1008900000AF78607B689B68012213405A1E934129
:1008A000DBB21800BD4602B080BD80B582B000AF9B
:1008B00078607B6801229A60C046BD4602B080BD68
:1008C00080B500AF094B1800FFF7E0FF0300012BD4
:1008D00009D1064B1800FFF7E8FF054B1A68044BD7
:1008E00001214A401A60C046BD4680BD000001405B
:1008F0007042005080B500AFFFF78AFF0420FFF779
:1009000069FD1020FFF792FE00210720FFF7AEFCE3
:1009100000F090F80120FFF75DFD0120FFF786FE53
:10092000094B1800FFF740FC1820FFF73FFD074B6D
:100930001800FFF75FFD054B002200211800FFF7AC
:10094000D5FCC046BD4680BD80F0FA020200805E44
:1009500080B500AFFFF7CEFF80235B010B4801227B
:100960001900FFF781FE80231B05094802221900A8
:10097000FFF7A7FE064B1800FFF779FF0820FFF7E7
:1009800031FF034B1800FFF763FFFEE740400050C4
:100990000000014080B588B000AF0023BB613B1D63
:1009A000204A1A60204B1B6A7B617A69A023DB0214
:1009B000134001D0002331E07A6980231B031340E8
:1009C00002D01A4BFB6101E0194BFB617A6980236D
:1009D0009B02134001D0FB6920E07B699B0B032243
:1009E00013403A1DD35C3B617B69DB05DB0D0233B1
:1009F000FB607B695B0A1F2213400233BB60FB690B
:100A00009B08FA685A431000BB683A6953431900BF
:100A100000F076F803009B00BB61BB691800BD467F
:100A200008B080BD010202040002005000805101A4
:100A3000001BB70080B584B000AFFFF7ABFF02002A
:100A4000184B1A60184B1B6907221340BB60BB6828
:100A5000022B05D0154BBA689200D358FB6002E018
:100A6000104B1B68FB60104B9B690F221340013336
:100A70007B607968F86800F043F803001A000C4BBB
:100A80001A600B4B1B680B4A944663440A491800D2
:100A900000F036F803001A00084B1A60C046BD4645
:100AA00004B080BD08000020000200500C000020AF
:100AB0000000002020A1070040420F000400002099
:100AC00080B500AFC046BD4680BD00000649074A5C
:100AD000074B9B1A03DD043BC858D050FBDCFFF7E3
:100AE000EFFFFFF735FF0000EC0B000000000020D7
:100AF00034000020FEE7C046ABBE7446984720474E
:100B0000002934D00123002210B488422CD30124C0
:100B10002407A14204D2814202D209011B01F8E755
:100B2000E400A14204D2814202D249005B00F8E70E
:100B3000884201D3401A1A434C08A04202D3001B3A
:100B40005C0822438C08A04202D3001B9C0822436D
:100B5000CC08A04202D3001BDC082243002803D0AB
:100B60001B0901D00909E3E7100010BC704701B56B
:100B7000002000F00BF802BD0029F8D003B5FFF704
:100B8000C1FF0EBC4243891A1847C0467047C04691
:100B9000F8B5C046F8BC08BC9E467047F8B5C046DC
:100BA000F8BC08BC9E46704700000000040000002E
:100BB0000C00000024000000000000000400000001
:100BC0002C00000000000000001BB7000000000027
:100BD00000000000000000000000000010270000DE
:0C0BE00000000000008051010000000037
:100BEC0080F0FA023200000080F0FA02001BB7001D
:100BFC000000000080F0FA02102700000000000046
:100C0C00000000000000000000805101E90000001D
:040C1C00C100000013
:0400000300000ACD22
:00000001FF
